:020000040800F2
:10000000580C00204501000895240008972400089A
:100010009B2400089F240008A3240008000000007F
:10002000000000000000000000000000A7240008FD
:10003000A924000800000000AB240008AD2400083B
:100040005F0100085F0100085F0100085F01000810
:100050005F0100085F0100085F0100085F01000800
:100060005F0100085F0100085F0100085F010008F0
:100070005F0100085F0100085F0100085F010008E0
:100080005F0100085F0100085F0100085F010008D0
:100090005F0100085F0100085F0100085F010008C0
:1000A0005F0100085F0100085F0100085F010008B0
:1000B0005F010008A72500085F0100085F01000834
:1000C0005F0100085F0100085F0100085F01000890
:1000D0005F010008AF2400085F0100082125000827
:1000E0005F0100085F0100085F0100085F01000870
:1000F0005F0100085F0100085F0100085F01000860
:100100005F0100085F0100085F0100085F0100084F
:100110005F0100085F0100085F0100085F0100083F
:100120005F0100085F0100085F0100085F0100082F
:10013000DFF80CD003F0FAFD00480047ED2300087B
:10014000580C00200648804706480047FEE7FEE7B7
:10015000FEE7FEE7FEE7FEE7FEE7FEE7FEE7FEE777
:1001600047020008310100080CB500200190009002
:100170006C48006840F480306A49086000BF6948F4
:10018000006800F4003000900198401C0190009835
:1001900018B90198B0F5A06FF1D16248006800F479
:1001A000003010B10120009001E000200090009884
:1001B000012843D15C48006840F010005A490860AB
:1001C0000846006820F0030008600846006840F018
:1001D0000200086053484068524948600846406839
:1001E00048600846406840F48060486008464068BF
:1001F00020F47C1048600846406840F4E8104860ED
:100200000846006840F08070086000BF45480068FC
:1002100000F000700028F9D04248406820F0030048
:10022000404948600846406840F00200486000BF0E
:100230003C48406800F00C000828F9D10CBD10B50E
:10024000FFF792FF10BD10B53648006840F001007E
:1002500034490860084640683449084031494860DC
:1002600008460068324908402E4908600846006880
:1002700020F4802008600846406820F4FE004860B2
:100280004FF41F008860FFF7DAFF4FF00060294944
:10029000086010BD10B5002100200022214B5B68D2
:1002A00003F00C0121B1042906D0082928D107E068
:1002B000214B224C236027E01F4B204C236023E07E
:1002C000184B5B6803F47010164B5B6803F48032C4
:1002D000022303EB904022B9194B4343174C236090
:1002E0000DE0104B5B6803F4003323B1144B434320
:1002F000124C236003E0104B4343104C236003E097
:100300000D4B0E4C236000BF00BF064B5B68C3F370
:1003100003130C4CE15C094B1B68CB40074C23607A
:1003200010BD000000100240002002400000FFF855
:10033000FFFFF6FE08ED00E000127A00000000204A
:1003400000093D000400002031490143314A116099
:10035000704770B5002100230F22C47804B32D4CE0
:10036000246804F4E064C4F5E064210AC1F10403E4
:10037000CA40447804FA03F1847814402143090107
:10038000254C0678A155047804F01F050124AC40E3
:1003900005786D11AD0005F1E025C5F8004109E0D3
:1003A000047804F01F050124AC401C4D067876113A
:1003B00045F8264070BD1A4A0A400243154B1B1FE0
:1003C0001A60704739B1134A121D12680243114B6B
:1003D0001B1D1A6006E00F4A121D126882430D4B66
:1003E0001B1D1A607047042808D14FF0E0210969ED
:1003F00041F004014FF0E022116107E04FF0E021ED
:10040000096921F004014FF0E022116170470000FA
:100410000000FA050CED00E000E400E080E100E0FF
:1004200080FFFF1F10B50446FA48844208D101211D
:10043000401500F07FFE0021601500F07BFE17E004
:10044000F548844208D10121001500F073FE002117
:10045000201500F06FFE0BE0F048844208D1012126
:10046000C80300F067FE00214FF4004000F062FE78
:1004700010BD30B50246002000235068E84C2040F3
:100480000D790C6844EA0524204350609068E54CDF
:100490002040D1E902542C434D7944EA45042043DD
:1004A0009060D06A20F470000C7C641EE4B2234398
:1004B00040EA0350D06230BD0021016001714171FA
:1004C0008160C16001210174704721B1826842F0EE
:1004D0000102826003E0826822F0010282607047BC
:1004E00021B1826842F48072826003E0826822F463
:1004F00080728260704710B50023CBB21AB1446895
:100500001C43446002E044689C43446010BD816821
:1005100041F0080181607047014600208A6802F0BE
:1005200008020AB1012000E000207047816841F014
:10053000040181607047014600208A6802F00402CD
:100540000AB1012000E00020704721B1826842F426
:10055000A002826003E0826822F4A00282607047F9
:10056000014600208A6802F480020AB1012000E0FE
:100570000020704710B50A4600210023416821F48D
:100580006041531E41EA4331416010BD21B14268D0
:1005900042F40062426003E0426822F4006242607A
:1005A0007047F0B504460D4600200021092D11DDED
:1005B000E068A5F10A0606EB4607072606FA07F1EA
:1005C0008843A5F10A0606EB460603FA06F108433E
:1005D000E0600CE0206905EB4507072606FA07F105
:1005E000884305EB450603FA06F108432061072A14
:1005F0000FDA606B561E06EB86071F2606FA07F118
:100600008843561E06EB860605FA06F1084360632A
:1006100022E00D2A0FDA206BD61F06EB86071F2675
:1006200006FA07F18843D61F06EB860605FA06F19F
:100630000843206310E0E06AA2F10D0606EB86078E
:100640001F2606FA07F18843A2F10D0606EB86067F
:1006500005FA06F10843E062F0BD21B1826842F478
:100660008012826003E0826822F480128260704708
:100670000146C86C80B2704766484C3000687047CD
:1006800021B1426842F48062426003E0426822F491
:1006900080624260704721B1426842F480524260F9
:1006A00003E0426822F48052426070470A4600210B
:1006B000816821F4E04111438160704721B1826873
:1006C00042F40042826003E0826822F400428260C9
:1006D000704721B1826842F40212826003E08268AE
:1006E00022F4021282607047014600208A6802F4F8
:1006F00000120AB1012000E000207047F0B5044666
:100700001546002000220026092911DDE068A1F12C
:100710000A0707EB470C072707FA0CF29043A1F1F1
:100720000A0707EB470703FA07F21043E0600CE003
:10073000206901EB410C072707FA0CF2904301EB0B
:10074000410703FA07F210432061A06BC0F3015682
:10075000EF1C06F1010CA7EB0C0707EB870C1F271A
:1007600007FA0CF29043EF1C06F1010CA7EB0C0703
:1007700007EB870701FA07F21043A063F0BD10B53D
:100780000A4600210023816B21F44011531E41EAE7
:100790000351816310BD08B5002300930090009BB6
:1007A0000B440093009B1A6008BD08B50246002068
:1007B0000090009201F12800009B184400900098DE
:1007C000006880B208BD0A4600214168164B1940F6
:1007D0001143416070474162826270470A460021BE
:1007E000416821F01F0111434160704740B1094940
:1007F0000831096841F40001064A0832116007E037
:1008000004490831096821F40001024A08321160E4
:10081000704700000024014000280140003C0140D6
:10082000FFFEF0FFFDF7F1FFFFFD3FFF0246002056
:1008300013680B400BB1012000E000207047CA4351
:100840000260704770B502460020002300240B129E
:100850005568CEB205EA060415681D4015B10CB105
:10086000012000E0002070BD00220A12D343036083
:100870007047000001684FF6FE72114001600021D0
:10088000016041608160C1608D49884208D18C4916
:100890000839496841F00F01894A083A51608AE0F5
:1008A00087491431884208D185490839496841F09F
:1008B000F001834A083A51607DE08149283188423D
:1008C00008D17F490839496841F470617C4A083A87
:1008D000516070E07A493C31884208D17849083942
:1008E000496841F47041764A083A516063E07449BE
:1008F0005031884208D172490839496841F4702161
:100900006F4A083A516056E06D496431884208D117
:100910006B490839496841F47001694A083A5160E5
:1009200049E067497831884208D165490839496802
:1009300041F07061624A083A51603CE06149884286
:1009400006D1011F096841F00F01021F116032E05A
:100950005C491431884208D15A49091F096841F09D
:10096000F001584A121F116025E05649283188428B
:1009700008D15449091F096841F47061514A121F96
:10098000116018E04F493C31884208D14D49091F98
:10099000096841F470414B4A121F11600BE049494C
:1009A0005031884207D14749091F096841F4702135
:1009B000444A121F1160704710B50022026847F6C2
:1009C000F0739A430C6A8B6823430C6923434C6988
:1009D00023438C692343CC6923434C6A23438C6AA9
:1009E00023431A430260CB6843600B6883604B6803
:1009F000C36010BD0021016041608160C160016180
:100A000041618161C161016241628162704721B1CE
:100A1000026842F00102026004E002684FF6FE73D1
:100A20001A40026070471AB103680B43036002E08A
:100A300003688B4303607047416070470146486814
:100A400080B2704701460020002201F080531BB1A4
:100A50001C4B083B1A6802E0194B083B1A6802EA73
:100A600001030BB1012000E00020704700F080512D
:100A700019B11449091F086002E01149083948609A
:100A8000704701460020002201F080531BB10D4B3E
:100A9000083B1A6802E00A4B083B1A6802EA0103A5
:100AA0000BB1012000E00020704700F0805119B127
:100AB0000449091F086002E001490839486070478D
:100AC000080002400804024010B50446CC488442A5
:100AD00008D10121042000F02DFB0021042000F0AA
:100AE00029FB46E0C748844208D10121082000F0D4
:100AF00021FB0021082000F01DFB3AE0C24884429F
:100B000008D10121102000F015FB0021102000F079
:100B100011FB2EE0BD48844208D10121202000F0C5
:100B200009FB0021202000F005FB22E0B8488442A8
:100B300008D10121402000F0FDFA0021402000F002
:100B4000F9FA16E0B348844208D10121802000F070
:100B5000F1FA0021802000F0EDFA0AE0AE4884426C
:100B600007D10121801500F0E5FA0021A01500F061
:100B7000E1FA10BD10B50121084600F0DBFA0021B2
:100B8000012000F0D7FA10BD2DE9F0410246002502
:100B90000026002000230024002791F803C00CF059
:100BA0000F0591F803C00CF0100CBCF1000F03D03E
:100BB00091F802C04CEA050591F800C0BCF1000FA5
:100BC00031D0146800202BE04FF0010C0CFA00F338
:100BD000B1F800C00CEA03069E4220D183004FF01A
:100BE0000F0C0CFA03F7BC4305FA03FC4CEA0404AF
:100BF00091F803C0BCF1280F06D14FF0010C0CFA9C
:100C000000FCC2F814C00AE091F803C0BCF1480F20
:100C100005D14FF0010C0CFA00FCC2F810C0401CCA
:100C20000828D1D31460B1F800C0BCF1FF0F34DD47
:100C3000546800202EE000F1080C4FF0010808FA7B
:100C40000CF3B1F800C00CEA03069E4221D18300E8
:100C50004FF00F0C0CFA03F7BC4305FA03FC4CEA07
:100C6000040491F803C0BCF1280F05D100F1080C71
:100C700008FA0CF8C2F8148091F803C0BCF1480FD0
:100C800007D100F1080C4FF0010808FA0CF8C2F87F
:100C90001080401C0828CED35460BDE8F0814FF688
:100CA000FF710180022181700421C17070470246EA
:100CB000002093680B400BB1012000E0002070473A
:100CC0000146886880B2704702460020D3680B4016
:100CD0000BB1012000E0002070470146C86880B2D7
:100CE000704701617047416170470AB1016100E0DE
:100CF00041617047C16070474FF480320A4382619E
:100D00008161826182698269704702460020434B9B
:100D100018684FF68073184040EA021008433F4BB2
:100D2000186070473E49C8617047F0B50A46002315
:100D300000240021002500F00046B6F1004F02D14A
:100D4000364EF16901E0354E7168C0F3034583B258
:100D500000F44016B6F5401F08D121F070612F4E07
:100D6000766826F070662D4F7E6012E000F48016E3
:100D7000B6F5801F06D1032606FA05F4A14341F01B
:100D8000706106E0460D360103FA06F6B14341F004
:100D9000706122B1460D360103FA06F6314300F0C8
:100DA0000046B6F1004F02D11C4EF16101E01B4E2E
:100DB0007160F0BD30B500228B071C0F0F2303FAC2
:100DC00004F2164B08338C1053F824309343134C21
:100DD00008348D1044F8253023468C1053F8243005
:100DE0008C07240F00FA04F423430C4C08348D10B4
:100DF00044F8253030BD0A49DC31086070470000F6
:100E000000080140000C01400010014000140140A6
:100E100000180140001C014000200140000001407A
:100E200000002042DF48006840F00100DD49086012
:100E300008464068DC490840DA49486008460068CE
:100E4000DA490840D74908600846006820F4802045
:100E500008600846406820F4FE0048604FF41F0018
:100E600088607047CF49096821F48031CD4A11600C
:100E70001146096821F480211160B0F5803F03D04C
:100E8000B0F5802F0ED106E0C649096841F48031E3
:100E9000C44A116007E0C349096841F4A021C14A6E
:100EA000116000E000BF00BF704710B5014600228E
:100EB000002300204A11012A02D1BA4C236806E01F
:100EC000022A02D1B74C236A01E0B64C636A01F0F2
:100ED0001F02012494401C400CB1012000E00020BE
:100EE00010BD38B5002000900024002500BF31203F
:100EF000FFF7DBFF05460098401C00900098B0F516
:100F0000A06F01D0002DF2D03120FFF7CEFF08B145
:100F1000012400E00024204638BD01460020A14AFB
:100F2000106820F0F80040EAC10010607047A04946
:100F300008607047024600209A4B586820F47C10E5
:100F400042EA01031843974B586070479849086676
:100F5000704701460020934A506820F00300084380
:100F6000506070478F48406800F00C0070470146A1
:100F700000208C4A506820F0F00008435060704711
:100F800001460020874A506820F4E0600843506022
:100F9000704701460020834A506820F4605040EAC0
:100FA000C1005060704729B17E4A527A02437D4B9E
:100FB0005A7204E07B4A527A82437A4B5A727047E3
:100FC0007B49D8310860704701460020754A506857
:100FD00020F440400843506070470021714A20329D
:100FE0001170704A82F82010012802D004280AD11A
:100FF00004E001216B4A2032117005E00521694AA5
:101000002032117000E000BF00BF704769490860DE
:1010100070476449096A0143624A11627047654931
:1010200044390860704730B50021002200240023B5
:101030005C4D6D6805F00C0121B1042905D008292B
:1010400023D105E05C4D056022E05B4D05601FE0AB
:10105000544D6D6805F47012524D6D6805F480347E
:10106000022505EB92421CB9544D554305600BE037
:101070004C4D6D6805F400351DB1504D554305606C
:1010800002E04D4D5543056002E04B4D056000BF49
:1010900000BF444D6D6805F0F0010909484D6B5CD7
:1010A0000568DD4045603F4D6D6805F4E061090A63
:1010B000434D6B5C4568DD4085603A4D6D6805F4D5
:1010C0006051C90A3E4D6B5C4568DD40C560354DD9
:1010D0006D6805F44041890B3A4D6B5CC568B5FB02
:1010E000F3F5056130BD29B12E4A526902432D4BFB
:1010F0005A6104E02B4A526982432A4B5A61704775
:1011000029B1284A92690243264B9A6104E0254A94
:1011100092698243234B9A61704729B1214AD2696F
:101120000243204BDA6104E01E4AD26982431D4B20
:10113000DA61704729B11B4AD2680243194BDA6061
:1011400004E0184AD2688243164BDA60704729B12E
:10115000144A12690243134B1A6104E0114A1269DE
:101160008243104B1A61704712494039086070473A
:101170000F49C86470470B49C87170470948406AF5
:1011800040F0807007494862704701460020054AD8
:1011900092680A400AB1012000E00020704701492E
:1011A00088727047001002400000FFF8FFFFF6FE53
:1011B000000042428004424200127A0000093D00D1
:1011C000140000202400002010B50446FE4884428C
:1011D00008D10121C014FFF7ADFF0021E014FFF793
:1011E000A9FFC4E0B4F1804F08D101210846FFF700
:1011F000AEFF00210120FFF7AAFFB8E0F3488442C8
:1012000008D101210220FFF7A2FF00210220FFF7F1
:101210009EFFACE0EE48844208D101210420FFF794
:1012200096FF00210420FFF792FFA0E0E9488442E6
:1012300008D101210820FFF78AFF00210820FFF7CD
:1012400086FF94E0E448844208D101211020FFF792
:101250007EFF00211020FFF77AFF88E0DF488442FC
:1012600008D101212020FFF772FF00212020FFF785
:101270006EFF7CE0DA48844208D101214014FFF778
:1012800059FF00216014FFF755FF70E0D5488442F4
:1012900009D10121C804FFF74DFF00214FF40020C0
:1012A000FFF748FF63E0D048844209D101210805D7
:1012B000FFF740FF00214FF48010FFF73BFF56E09F
:1012C000CA48844209D101214805FFF733FF0021B4
:1012D0004FF40010FFF72EFF49E0C548844208D1C3
:1012E00001214020FFF733FF00214020FFF72FFFAF
:1012F0003DE0C048844208D101218020FFF727FF4C
:1013000000218020FFF723FF31E0BB48844208D151
:1013100001218015FFF71BFF0021A015FFF717FF24
:1013200025E0B648844209D101210804FFF702FFF5
:1013300000214FF48030FFF7FDFE18E0B0488442F2
:1013400009D101214804FFF7F5FE00214FF40030D8
:10135000FFF7F0FE0BE0AB48844208D1012188047E
:10136000FFF7E8FE00214FF48020FFF7E3FE10BDF9
:1013700000220288944B98420ED0994B98420BD091
:10138000B0F1804F08D0914B984205D0904B9842D5
:1013900002D0904B984204D14FF68F731A404B887D
:1013A0001A438D4B984207D08C4B984204D04FF68D
:1013B000FF431A40CB881A4302808B8883850B88B1
:1013C0000385814B98420BD0854B984208D08B4BBC
:1013D000984205D08A4B984202D08A4B984201D15C
:1013E0000B7A038601238382704770B500240022A4
:1013F0000023058C4FF6FE7635400584028C8388E9
:10140000048B4FF68F752C40B51E2C400D882C4355
:10141000751E2A400D892A434D882A436A4DA842E9
:101420000BD06F4DA84208D0744DA84205D0744D22
:10143000A84202D0734DA84213D14FF6F7752A4047
:101440004D892A434FF6FB752A408D882A434FF673
:10145000FF652B404FF6FF552B408D892B43CD89DF
:101460002B4383800483CD888586028470BD70B54C
:10147000002400220023058C4FF6EF7635400584CA
:10148000028C8388048B48F6FF752C404FF6FF458D
:101490002C400D884FF6FF7606EA05252C434FF6C3
:1014A000DF752A400D8906EA05152A434D8806EAAC
:1014B00005152A43444DA84202D0494DA8421DD1EA
:1014C0004FF67F752A404D894FF6FF7606EA0515DF
:1014D0002A434FF6BF752A408D8806EA05152A4330
:1014E0004FF6FF352B404FF2FF752B408D8906EAF2
:1014F00085052B43CD8906EA85052B43838004832C
:10150000CD880587028470BD70B5002400220023B9
:10151000058C4FF6FF6635400584028C8388848BEA
:101520004FF68F752C404FF6FC752C400D882C43E0
:101530004FF6FF552A400D894FF6FF7606EA05253E
:101540002A434D8806EA05252A431F4DA84202D0AA
:10155000234DA8421DD14FF2FF752A404D894FF609
:10156000FF7606EA05252A434FF6FF352A408D8887
:1015700006EA05252A434EF6FF752B404DF6FF750A
:101580002B408D8906EA05152B43CD8906EA051502
:101590002B4383808483CD888587028470BD70B59A
:1015A000002200230024058C4EF6FF76354005848A
:1015B000038C8488828B48F6FF752A404FF6FF45DE
:1015C0002A400D8820E00000002C0140000400406B
:1015D00000080040000C00400010004000140040D3
:1015E00000340140004C01400050014000540140D3
:1015F00000180040001C0040002000400040014056
:1016000000440140004801404FF6FF7606EA0525F8
:101610002A434DF6FF752B400D8906EA05352B430D
:101620004D8806EA05352B43FA4DA84202D0FA4D03
:10163000A84208D14BF6FF752C408D894FF6FF76F6
:1016400006EA85152C4384808283CD88A0F840501B
:10165000038470BD828B4FF2FF331A408283828BEA
:101660004FF6FF7303EA01231A4382837047F0B5F4
:101670000C461546002200210026078C4EF6FF7C02
:1016800007EA0C070784828B018C4FF6FF7707EA85
:10169000043640F6FF473A404FF6FF7707EA052742
:1016A0003A434FF6FF7707EA03373A43D94FB84238
:1016B0000ED0D94FB8420BD0B0F1804F08D0D74FE1
:1016C000B84205D0D64FB84202D0D64FB84206D164
:1016D0004DF6FF77394046F48057394305E047F629
:1016E000FF57394044F48057394382830184F0BD69
:1016F000828B4FF6F3731A408283828B0A43828374
:101700007047F0B50C461546002200210026078CD4
:101710004FF6FF6C07EA0C070784828B018C4FF6AB
:10172000FF7707EA04264FF60C773A404FF6FF772B
:1017300007EA03172F433A43B64FB8420ED0B64FCD
:10174000B8420BD0B0F1804F08D0B44FB84205D0AA
:10175000B34FB84202D0B34FB84206D14FF6FF574D
:10176000394046F48077394305E04FF2FF5739405E
:1017700044F48077394382830184F0BD028B4FF2B9
:10178000FF331A400283028B4FF6FF7303EA0123F3
:101790001A4302837047F0B50C461546002200211B
:1017A0000026078C4FF6EF7C07EA0C070784028BB4
:1017B000018C4FF6FF7707EA041640F6FF473A40E0
:1017C0004FF6FF7707EA03373A434FF6FF7707EA0A
:1017D00005273A438F4FB8420ED08F4FB8420BD0F7
:1017E000B0F1804F08D08D4FB84205D08C4FB84231
:1017F00002D08C4FB84206D14FF6DF77394046F021
:101800001007394305E04FF65F77394044F0100781
:10181000394302830184F0BD028B4FF6F3731A4003
:101820000283028B0A4302837047F0B50C461546CB
:1018300000220021068C4FF6FE773E400684028B84
:10184000018C4FF60C7632407E1C06EA03162E43BE
:101850003243704EB0420ED06F4EB0420BD0B0F15A
:10186000804F08D06D4EB04205D06D4EB04202D0D0
:101870006C4EB04206D14FF6FD76314044F0010681
:10188000314305E04FF6F576314044F0010631432F
:1018900002830184F0BD70B505460C465D48854263
:1018A0000ED05D4885420BD0B5F1804F08D05B4823
:1018B000854205D05A48854202D05A48854200D117
:1018C00000E000BF208850B92389A288618828469B
:1018D000FFF7ABFFE1882846FFF79EFF25E0208851
:1018E00004280AD12389A28861882846FFF753FF7C
:1018F000E1882846FFF742FF17E0208808280AD130
:101900002389A28861882846FFF7FBFEE1882846E4
:10191000FFF7EEFE09E02389A28861882846FFF7D9
:10192000A6FEE1882846FFF795FE70BD2DE9F0413F
:1019300005460C4600260127608808B9022600E00B
:101940000026A088012801D1022700E00127208875
:10195000A0B92389A28861882846FFF766FFE1883D
:101960002846FFF759FF23893A4631462846FFF7B4
:1019700012FFE1882846FFF701FF13E02389A288C0
:1019800061882846FFF707FFE1882846FFF7F6FE43
:1019900023893A4631462846FFF747FFE188284623
:1019A000FFF73AFFBDE8F0810A884B881A438B881D
:1019B0001A43CB881A430B891A434B891A438B89E4
:1019C0001A43A0F8442070474FF6FF718180002130
:1019D0000180C180418001727047002101804180F7
:1019E0008180C180018141818181C1817047002155
:1019F00001804180012181800021C18001817047E7
:101A00000021018041808180C180018141818181EB
:101A100070470000002C01400034014000040040E9
:101A200000080040000C004021B1028842F0010291
:101A3000028004E002884FF6FE731A40028070476D
:101A400031B1B0F8442042F40042A0F8442005E04F
:101A5000B0F84420C2F30E02A0F8442070471AB137
:101A600083890B43838102E083898B4383817047A1
:101A70008182704741EA0203A0F8483070471AB1EA
:101A800083890B43838102E083898B438381704781
:101A900001894FF6F8721140018170470A46002112
:101AA00001894FF68F73194011430181704730B59A
:101AB00004460D4629462046FFF7F0FF208940F0F6
:101AC0000700208130BD2DE9F04104460D46164641
:101AD0001F46602D06D13B46012231462046FFF7C6
:101AE0005AFE05E03B46012231462046FFF79DFEA7
:101AF00029462046FFF7D2FF208940F007002081C9
:101B0000BDE8F08130B50C4600210189C9B24FF61D
:101B1000FF7505EA0325154325432943018130BD9F
:101B20002DE9F04105460E461746984600244346E7
:101B30003A4631462846FFF7E5FF2C894FF6F87004
:101B4000044044F007044FF68F70044044F07004E2
:101B50002C81BDE8F081F0B504460D4616461F46BF
:101B60003B46324629462046FFF7CCFF208940F409
:101B700080402081F0BD0185828270470A460021A5
:101B800001884FF68F731940114301807047F0B5FB
:101B90000C4615461E460021002200230189028BB7
:101BA000038C4FF6F877394021434FF6FC473A4013
:101BB00040F201173A434FF6DD773B404FF6FF778F
:101BC00007EA06172F433B43018102830384F0BDDC
:101BD0000A460021018B4FF68F7319401143018390
:101BE00070470A460021018B48F6FF7319404FF6F3
:101BF000FF7303EA02231943018370470A46002159
:101C0000818B4FF68F7319401143818370470A46C9
:101C10000021818B48F6FF7319404FF6FF7303EAEA
:101C2000022319438183704721B1028842F0800268
:101C3000028004E002884FF67F731A4002807047EA
:101C400021B1828842F00402828004E082884FF64B
:101C5000FB731A408280704721B1828842F00802EB
:101C6000828004E082884FF6F7731A4082807047C2
:101C700021B1828842F00102828004E082884FF61E
:101C8000FE731A40828070470A460021018B4FF68E
:101C9000F77319401143018370470A460021018BF5
:101CA0004FF2FF7319404FF6FF7303EA0223194303
:101CB000018370470A460021818B4FF6F773194064
:101CC0001143818370470A460021818B4FF2FF73D5
:101CD00019404FF6FF7303EA0223194381837047CB
:101CE0000A460021018B4FF6FB7319401143018313
:101CF00070470A460021018B4FF6FF3319404FF61B
:101D0000FF7303EA02231943018370470A46002147
:101D1000818B4FF6FB7319401143818370470A464C
:101D20000021818B4FF6FF3319404FF6FF7303EA12
:101D300002231943818370470A460021018B4FF625
:101D40007F7319401143018370470A460021018BBC
:101D5000C1F30E014FF6FF7303EA02231943018317
:101D600070470A460021818B4FF67F73194011435B
:101D7000818370470A460021818BC1F30E014FF623
:101D8000FF7303EA02231943818370470A46002147
:101D9000018C4FF6FD7319401143018470470A46C8
:101DA0000021018C4FF6F7731940114301847047ED
:101DB0000A460021018C4FF6DF7319404FF6FF737E
:101DC00003EA02131943018470470A460021018C7B
:101DD0004FF67F7319404FF6FF7303EA021319435E
:101DE000018470470A460021018C4FF6FF531940C9
:101DF0004FF6FF7303EA02231943018470470A4632
:101E00000021018C4FF2FF7319404FF6FF7303EA74
:101E100002231943018470470A460021018C4DF6C4
:101E2000FF7319404FF6FF7303EA0233194301842D
:101E3000704730B5002301248C40A3B2048C9C432E
:101E40000484048C02FA01F5ADB22C43048430BD45
:101E500030B5002304248C40A3B2048C9C4304843A
:101E6000048C02FA01F5ADB22C43048430BD70B588
:101E70000346002000241846183001258D40ACB2DE
:101E80001D8CA5431D8409B1082909D100EB61000F
:101E9000056825F0700505600568154305600EE0CE
:101EA0000D1FC5F34E052844056825F4E04505607F
:101EB00005684FF6FF7606EA02263543056070BDD9
:101EC00021B1028842F00202028004E002884FF64B
:101ED000FD731A400280704721B1028842F004026B
:101EE000028004E002884FF6FB731A4002807047BC
:101EF00021B1828842F08002828004E082884FF61D
:101F00007F731A408280704702884FF6F7731A4039
:101F1000028002880A430280704782884FF68F73DE
:101F20001A40828082880A438280704702894FF675
:101F3000F8731A40028102890A43028170470289BC
:101F40004FF67F731A40028102890A43028170476B
:101F5000818470478185704781867047018770470B
:101F600081877047A0F84010704702884FF6FF4302
:101F70001A40028002880A43028070470146888E18
:101F800070470146088F70470146888F70470146A9
:101F9000B1F8400070470146888C70470146088DB3
:101FA000704702460020138A0B400BB1012000E06D
:101FB00000207047CA430282704730B502460020B5
:101FC00000230024158A05EA0103958905EA010426
:101FD00013B10CB1012000E0002030BDCA430282E1
:101FE0007047000010B50446FB48844209D1012126
:101FF0008803FFF79FF800214FF48040FFF79AF81D
:1020000032E0F648844209D101214804FFF79FF8E5
:1020100000214FF40030FFF79AF825E0F0488442A1
:1020200009D101218804FFF792F800214FF48020A4
:10203000FFF78DF818E0EB48844209D10121C8046C
:10204000FFF785F800214FF40020FFF780F80BE040
:10205000E548844208D101210805FFF778F80021FE
:102060004FF48010FFF773F810BD2DE9F04786B0EC
:1020700005460E460024A24600BFA1460027B089AF
:1020800000B100BF2F462C8A4CF6FF700440F08848
:1020900004432C82AC894EF6F3100440B088318999
:1020A0000843718908430443AC81AC8A4FF6FF4072
:1020B0000440B0890443AC8201A8FEF7B4FFC648CF
:1020C000874202D1DDF810A001E0DDF80CA0A8895C
:1020D00000F4004040B10AEBCA0000EB0A1031687E
:1020E0004900B0FBF1F807E00AEBCA0000EB0A1068
:1020F00031688900B0FBF1F86420B8FBF0F004010E
:102100002009642101FB1089A88900F4004040B136
:10211000322000EBC900B0FBF1F000F007000443EF
:1021200008E0322000EB09106421B0FBF1F000F070
:102130000F0004432C8106B0BDE8F0874FF4165120
:10214000016000218180C18001810C214181002139
:102150008181704710B502460020108A4FF2FF03BC
:1021600018400B884C8823438C882343CC88234316
:102170001843108210BD0021018041808180C18000
:10218000704721B1828942F40052828104E0828941
:102190004DF6FF731A4082817047F0B50346002464
:1021A00000260025002040F66A17B94200D100BF82
:1021B0001846C1F3421401F01F06012707FA06F57D
:1021C000012C01D10C3004E0022C01D1103000E0D0
:1021D00014301AB107682F43076002E00768AF4365
:1021E0000760F0BD1AB1838A0B43838202E0838AC1
:1021F0008B4383827047028A4FF6F0731A40028243
:10220000028A0A430282704782894FF2FF731A40A2
:10221000828182890A438281704721B1828942F09A
:102220000202828104E082894FF6FD731A408281A6
:102230007047028A4FF6DF731A400282028A0A430D
:102240000282704721B1028A42F48042028204E095
:10225000028A4BF6FF731A4002827047C1F30802EC
:102260008280704701468888C0F3080070478189E2
:1022700041F0010181817047028BD2B20283028B4F
:1022800042EA012202837047028B02F47F420283FA
:10229000028B0A430283704721B1828A42F02002F6
:1022A000828204E0828A4FF6DF731A40828270478E
:1022B00021B1828A42F01002828204E0828A4FF6C3
:1022C000EF731A408282704721B1828A42F008027D
:1022D000828204E0828A4FF6F7731A408282704746
:1022E00021B1828942F40042828103E08289C2F3F3
:1022F0000E028281704721B1828A42F4006282829A
:1023000004E0828A4FF2FF731A4082827047828A09
:102310004FF6FB731A408282828A0A438282704798
:1023200021B1828A42F00202828204E0828A4FF660
:10233000FD731A408282704702460020B1F5007F8B
:1023400000D100BF13880B400BB1012000E000203A
:10235000704701F40072B2F5007F00D100BFCA439C
:102360000280704770B5024600240023002500203B
:1023700040F66A16B14200D100BFC1F3421501F028
:102380001F03012606FA03F3012D02D1968933407B
:1023900006E0022D02D1168A334001E0968A3340CE
:1023A0000C12012606FA04F41688344013B10CB15D
:1023B000012000E0002070BD10B50022002340F68F
:1023C0006A14A14200D100BF0A1201249440A3B2B2
:1023D000DC43048010BD0000003801400044004090
:1023E00000480040004C004000500040002401F034
:1023F0000FFB00F0D8F901F0FFFA01F067F900F0E7
:10240000CBFA00F095FA00F083FB01F07CFA01F0C2
:102410009BF9184801F0BCFC00F098FF28E0641C10
:10242000154884420DD1002401F0CDF9134908600C
:102430000846006801F0EFFB0546294610A001F0B0
:10244000A7FC12490D48006801F0FEFB0BD20120E9
:1024500001F091F920200E4908600120091F086051
:102460000220086002E0002001F085F900F0BCFFC6
:10247000D5E70000C4400008407E05002800002089
:102480004D5132203D2025640D0A00000000B44269
:10249000140C0140704700BFFEE700BFFEE700BF1D
:1024A000FEE700BFFEE7704770477047704710B502
:1024B00040F225514B48FFF755FFD8B14948FFF787
:1024C000D1FEC4B24848B0F80004C0F30E0040F298
:1024D000FF3188420EDA4449B1F80014C1F30E000E
:1024E000411C414AB2F8002461F30E023E49A1F8B2
:1024F00000240C5440F224413A48FFF733FF0128EE
:102500000DD13948B0F8000420F4004000F5004037
:102510003549A1F800043348FFF7A4FEC4B210BD4A
:1025200010B540F225513148FFF71CFFD8B12F48B4
:10253000FFF798FEC4B22E48B0F80004C0F30E00B6
:1025400040F2FF3188420EDA2949B1F80014C1F394
:102550000E00411C264AB2F8002461F30E02244901
:10256000A1F800240C5440F224412048FFF7FAFE61
:10257000012817D11E48B0F8000420F4004000F5EF
:1025800000401B49A1F800041848FFF76BFEC4B2D5
:1025900018A1174801F0B8FA08B1012000E00020A6
:1025A0001749087010BD10B516480068401C154941
:1025B00008600846006864280FD11348007860B1AD
:1025C00012A001F0E5FB00200E4908600E490870DA
:1025D0004FF4FA710F48FFF7BFFC01210D48FFF7D8
:1025E000FDFC10BD003801405204002000480040AE
:1025F00050000020434C4F5345440D0A000000009A
:102600003B0000202C000020300000207465737413
:10261000320D0A0000040040F0B503460D46164690
:10262000002729460A2E03D0002008702846F0BD56
:1026300033B9302001F8010B002008702846F6E776
:10264000002B03DA2D2001F8010B5B4242F21072DD
:102650000DE093FBF2F404B937B104F1300001F856
:10266000010B04FB123301270A2092FBF0F2002A2F
:10267000EFDC002008702846D9E70FB470B586B0AB
:1026800006460CA8019073E00B9800785C281CD1DA
:102690000B98401C0B9000786E2809D072280FD13F
:1026A0000D213046FFF7DAFD0B98401C0B900BE034
:1026B0000A213046FFF7D2FD0B98401C0B9003E037
:1026C0000B98401C0B9000BF4BE00B98007825281E
:1026D00040D10B98401C0B900078642818D07328C8
:1026E00033D1019810C801900BE021783046FFF7F4
:1026F000B5FD00BF80213046FFF71EFE0028F9D04F
:10270000641C20780028F0D10B98401C0B9020E02E
:10271000019820C801900A2202A92846FFF77CFFF1
:1027200002AC0BE021783046FFF798FD00BF802116
:102730003046FFF701FE0028F9D0641C20780028FD
:10274000F0D10B98401C0B9003E00B98401C0B90B1
:1027500000BF06E00B9810F8011B0B903046FFF706
:102760007DFD00BF80213046FFF7E6FD0028F9D04F
:102770000B980078002887D106B070BC5DF814FB78
:1027800008B54FF4A060FDF7DFFD25208DF80000AF
:1027900001208DF801008DF802008DF803006846D5
:1027A000FDF7D7FD08BD00B585B001210420FEF777
:1027B000A7FC01218803FEF7A3FC4FF40070ADF8DD
:1027C000100018208DF8130003208DF8120004A9C2
:1027D0005548FEF7D9F94FF48060ADF81000042099
:1027E0008DF8130004A95048FEF7CEF94FF4E130FC
:1027F00000900020ADF80400ADF80600ADF8080028
:10280000ADF80C000C20ADF80A0069464748FFF708
:102810002CFCFFF7B5FF012240F225514348FFF79A
:10282000BCFC012240F224414048FFF7B6FC0121E4
:102830003E48FFF7A6FC05B000BD70B504460D4646
:1028400029462046FFF70AFD00BF80212046FFF7FA
:1028500073FD0028F9D070BD2DE9F04107460D4603
:102860001646002405E0295D3846FFF7E6FF601CA8
:10287000C4B2B442F7DB00BF40213846FFF75CFD2D
:102880000028F9D0BDE8F08170B506460C46002559
:1028900000BF615D3046FFF7D0FF6D1C605D002812
:1028A000F7D100BF40213046FFF746FD0028F9D0A0
:1028B00070BD2DE9F04105460C46260AE7B23146C7
:1028C0002846FFF7CBFC00BF80212846FFF734FDE8
:1028D0000028F9D039462846FFF7C0FC00BF802108
:1028E0002846FFF729FD0028F9D0BDE8F08170B532
:1028F00004460D46E1B20D48FFF7B0FC00BF802151
:102900000A48FFF719FD0028F9D0204670BD10B520
:10291000044600BF20210548FFF70EFD0028F9D02E
:102920000248FFF79FFC10BD00080140003801403D
:1029300008B501210820FEF7E3FB2020ADF80000D8
:1029400010208DF8030003208DF80200694611481D
:10295000FEF71AF90120ADF8000069460D48FEF7B0
:1029600013F90220ADF8000069460A48FEF70CF999
:1029700020210848FEF7B5F901210648FEF7B1F914
:1029800002210448FEF7ADF908BD2022014B1433A3
:102990001A607047000C01401A48006840F08070CF
:1029A000184908600020184948600846006840F04F
:1029B00001000860704714484068704731B5002333
:1029C00012480068124DB0FBF5F0009D00FB05F4C5
:1029D00000BFFFF7F0FF024611E0FFF7ECFF0146F2
:1029E00091420CD0914202D9881A034403E0C2F10B
:1029F000FF30084403440A46A34200D300E0ECE75A
:102A000000BF38BDFCED00E0001000E00000002039
:102A100040420F0008B54FF4A060FDF795FC272059
:102A20008DF8000000208DF801008DF802000120D3
:102A30008DF803006846FDF78CFC08BD00B585B035
:102A400001218804FEF769FB01210820FEF758FBED
:102A50004FF48060ADF8100018208DF813000320AB
:102A60008DF8120004A9F948FEF78EF84FF40060C3
:102A7000ADF8100004208DF8130004A9F348FEF708
:102A800083F84FF4E13000900020ADF80400ADF879
:102A90000600ADF80800ADF80C000C20ADF80A00F7
:102AA0006946EB48FFF7E1FA012240F22551E84878
:102AB000FFF773FB012240F22441E548FFF76DFB6D
:102AC000FFF7A8FF0121E248FFF75BFB05B000BD5F
:102AD00008B501210820FEF713FB4FF48070ADF814
:102AE000000010208DF8030003208DF802006946D5
:102AF000D648FEF749F801210820FEF701FB4FF404
:102B00000070ADF800006946D048FEF73DF808BDFA
:102B100010B5FFF7DDFFFFF791FF4FF40071CB48D1
:102B2000FEF7DFF84FF48071C848FEF7DCF810BDFF
:102B300010B54FF40071C548FEF7D5F8C548FFF74A
:102B40003DFF4FF40071C148FEF7CBF810BD2DE9F1
:102B5000F04106460C4615461F46BF48B0F8000433
:102B60006FF30E00BC49A1F800043246BBA1B8487F
:102B7000FFF783FD1CB915B90120BDE8F0814FF4C2
:102B80007A7107FB01F0FFF719FF0020B249B1F895
:102B90000014C1F30E01B04A50541146B1A001F027
:102BA000F7F8AD48B0F800046FF30E00AA49A1F899
:102BB00000040846B0F8000420F40040A1F8000426
:102BC000B4B1ADB12146A44800F09EFF08B1012088
:102BD00000E0002040B929469F4800F095FF08B169
:102BE000012000E0002008B10120C6E70020C4E772
:102BF00044B12146984800F087FF08B10120BCE7A6
:102C00000020BAE72946944800F07EFF08B1012071
:102C1000B3E70020B1E700B58BB093A101A801F0A4
:102C2000C7F84FF4FA73002294A101A8FFF78FFFB1
:102C30000BB000BD10B500244FF400718348FEF7BF
:102C400050F88FA001F0A4F89148FFF7B7FE15E007
:102C5000214690A001F09CF84FF4FA73002287A15E
:102C600092A0FFF774FF28B1214691A001F090F8DF
:102C7000012010BDFFF75CFF601CC4B20A2CE7DB2B
:102C80000020F6E710B5044624B1012C0AD0022C2E
:102C900018D10FE040F6C4138CA278A18EA0FFF7E4
:102CA00056FF10BD40F6C41388A274A18DA0FFF793
:102CB0004EFFF6E740F6C41384A270A18CA0FFF784
:102CC00046FFEEE70020ECE730B59FB004460D4626
:102CD0002B46224689A101A801F06AF841F2883307
:102CE000002266A101A8FFF732FF1FB030BD70B50A
:102CF000A0B004460D4616462B46224684A102A8E3
:102D0000009601F055F84FF47A7300225BA102A8F7
:102D1000FFF71DFF20B070BD10B586B004460CB1A2
:102D2000012000E0002002467FA101A801F040F848
:102D30004FF4FA73002251A101A8FFF708FF06B073
:102D400010BDF0B5B9B006460F4614461D466421C5
:102D500020A800F0CEFE16B1012E10D107E03B46B0
:102D600075A276A120A8009401F022F808E03B4665
:102D700076A272A120A8009401F01AF800E000BF2A
:102D800000BF052D06DA20AB2A4671A102A801F08A
:102D90000FF804E020AA73A102A801F009F84FF48B
:102DA0007A6374A235A102A8FFF7D1FE39B0F0BD55
:102DB00070B5BCB004460D461646FCB12B46012248
:102DC00070A11EA800F0F4FF324673A1684600F01F
:102DD000EFFF4FF4FA73002228A11EA8FFF7B7FEF9
:102DE00050B14FF4FA73002224A16846FFF7AFFEFA
:102DF00010B101203CB070BD0020FBE72B46002243
:102E000060A11EA800F0D4FF4FF4FA7300221BA1AA
:102E10001EA8FFF79CFEEDE710B54FF4FA730022F1
:102E200016A161A0FFF793FE68B163A10A4800F004
:102E30006BFE08B1022010BD62A1074800F064FEDD
:102E400010B10320F7E7CAE0C2E00000000C014027
:102E50000048004020A107005000002025730D0A03
:102E6000000000002573000041542B4357444843A1
:102E7000505F4355523D312C310000004F4B000054
:102E80000D0A4154B2E2CAD42E2E2E2E2E0D0A0067
:102E900080841E000D0A4154B2E2CAD4B4CECAFDE9
:102EA0002025642E2E2E2E2E2E0D0A0041540000B9
:102EB0000D0A4154B2E2CAD4C6F4B6AFB3C9B9A63A
:102EC0002025642E2E2E2E2E2E0D0A006E6F2063CE
:102ED00068616E676500000041542B43574D4F44B5
:102EE000453D310041542B43574D4F44453D320041
:102EF00041542B43574D4F44453D330041542B43E0
:102F0000574A41503D222573222C2225732200006E
:102F100041542B43575341503D222573222C2225E7
:102F200073222C312C25640041542B4349504D55BC
:102F3000583D2564000000005443500022257322B0
:102F40002C222573222C25730000000055445000CC
:102F500041542B43495053544152543D25642C2530
:102F60007300000041542B43495053544152543D87
:102F700025730000414C5245415920434F4E4E4568
:102F80004354000041542B43495053455256455237
:102F90003D25642C2573000041542B434950535464
:102FA0004F3D25730000000041542B4349505354BA
:102FB00041545553000000005354415455533A3284
:102FC0000D0A00005354415455533A330D0A000082
:102FD00078A17B4800F098FD08B104202BE7002081
:102FE00029E710B500244FF4FA730022AFF27411F0
:102FF000AFF24C00FFF7ABFD002831D071A1704853
:1030000000F082FD10B144F0010401E024F001045D
:1030100070A16B4800F078FD10B144F0020401E0AB
:1030200024F002046FA1664800F06EFD10B144F078
:10303000040401E024F004046EA1614800F064FD82
:1030400010B144F0080401E024F008046DA15C48CC
:1030500000F05AFD10B144F0100401E024F0100417
:10306000204610BD2DE9F04105460F464FF4FA7396
:103070000022AFF2F81167A0FFF769FD68A1504880
:1030800000F042FD06460EB1B61D02E00020BDE88C
:10309000F081002409E0305D2855285D222802D106
:1030A0000020285503E0601CC4B2BC42F3DB00BF23
:1030B0000120ECE710B54FF4FA730022AFF244217F
:1030C00059A0FFF744FD08B9002010BD4FF4FA7372
:1030D00059A2AFF2582159A0FFF739FDF5E710B515
:1030E0005948FFF76BFC59A15948FFF7C6FA5948F0
:1030F000FFF764FC10BD2DE9F04186B007460C4691
:1031000015461E464FF0000847B12246AFF2AC21EB
:103110004F48FFF7B2FA4FF001081BE0052E06DA20
:10312000AB1C32464CA101A800F042FE04E0AA1CF0
:103130004EA101A800F03CFE642300224FA101A88B
:10314000FFF705FD4FF4FA7300224DA12046FFF76B
:10315000FEFC8046404606B0BDE8F08170B50446EE
:1031600000251748B0F800046FF30E001449A1F8C9
:1031700000040846B0F8000420F40040A1F8000460
:1031800000BF0F48B0F80004C00B0028F9D00020A1
:103190000B49B1F80014C1F30E01094A50540CB1A7
:1031A000154605E038A1064800F0AEFC00B1044D1C
:1031B000284670BD5354415455533A340D0A00000B
:1031C000500000202B4349505354415455533A303A
:1031D0002C0000002B4349505354415455533A316D
:1031E0002C0000002B4349505354415455533A325C
:1031F0002C0000002B4349505354415455533A334B
:103200002C0000002B4349505354415455533A3439
:103210002C00000041542B4349465352000000004B
:10322000415049502C22000041542B4349504D4FEE
:1032300044453D31000000003E00000041542B4356
:10324000495053454E44000040420F002B2B2B00A9
:103250000048004020A1070041542B4349505345EA
:103260004E443D25642C25640000000041542B434E
:10327000495053454E443D25640000003E20000067
:1032800053454E44204F4B002B4950440000000052
:1032900070B50546002499A1284600F035FCC0B160
:1032A000202097490860012008600220091D08605D
:1032B000052294499448FFF7CFFA00BF06E09148F1
:1032C000015D92A000F064FD601CC4B2052CF6DB29
:1032D0003BE091A1284600F017FCD0B1202088499E
:1032E000091D08600120091F08600220091D0860EF
:1032F00005228A498448FFF7AFFA002406E0874890
:10330000015D82A000F044FD601CC4B2052CF6DB18
:103310001BE083A1284600F0F7FBB0B120207849DC
:1033200008600120091D08600220091F08607DA0B7
:1033300000F02EFD00207D4908604FF47A717C4832
:10334000FEF70AFE01207B49087070BD10B57AA017
:1033500000F01EFD7FA000F01BFD4FF48071684857
:103360001038FDF7BEFC00BFFFF764FC0028FBD05F
:1033700000BFFFF750FC0028FBD07CA000F008FD48
:1033800000BF0020FFF77EFC0028FAD07FA000F0ED
:10339000FFFC00BF84A187A0FFF796FC0028F9D0AE
:1033A00087A000F0F5FC00BF0020FFF7B5FC002867
:1033B000FAD089A000F0ECFC00BF05238DA28FA1FC
:1033C0000020FFF7BEFC0028F7D090A000F0E0FC42
:1033D00000BFFFF76FFE0028FBD093A000F0D8FCE1
:1033E00097A000F0D5FC10BD70B59A48B0F8000465
:1033F0000121B1EBD03F28D100240DE09548015DBB
:103400009548FEF72BFF00BF40219348FEF794FF3D
:103410000028F9D0601C84B28E48B0F80004C0F3D4
:103420000E00A042EADC8B48B0F800046FF30E00F7
:103430008849A1F800040846B0F8000420F40040D0
:10344000A1F800040846FFF723FF8448B0F8000401
:10345000C00B40B300240DE08048015D8048FEF7BA
:10346000FDFE00BF40217E48FEF766FF0028F9D030
:10347000601C84B27948B0F80004C0F30E00A0428A
:10348000EADC7648B0F800046FF30E007349A1F847
:1034900000040846B0F8000420F40040A1F800043D
:1034A0000846FFF7F5FE6F480078002824D0FFF7A4
:1034B00016FE00BFFFF7B0FC0546002DFAD0042D24
:1034C00015D169A000F064FC00BF37A139A0FFF757
:1034D000FBFB0028F9D000BF052346A247A100202E
:1034E000FFF72FFC0028F7D067A000F051FC00BFC9
:1034F000FFF7E0FD0028FBD070BD00003630000073
:10350000100C0140360000200044004073656E64DA
:103510003A202523780D0A003631000031000020C2
:103520003731000074657374330D0A002C000020DD
:1035300000040040300000200D0AD5FDD4DAC5E4B7
:10354000D6C32045535038323636202E2E2E2E2EFE
:103550002E0D0A000D0ACAB9C4DC2045535038327A
:103560003636202E2E2E2E2E2E0D0A000D0AD5FDBB
:10357000D4DAC5E4D6C3B9A4D7F7C4A3CABD2053CF
:103580005441202E2E2E2E2E2E0D0A000D0AD5FD72
:10359000D4DAC1ACBDD32057694669202E2E2E2E19
:1035A0002E2E0D0A000000007A6861693830313132
:1035B000333000006C69616E746F6E67000000004C
:1035C0000D0ABDFBD6B9B6E0C1ACBDD3202E2E2E60
:1035D0002E2E2E0D0A0000000D0AD5FDD4DAC1AC46
:1035E000BDD320536572766572202E2E2E2E2E2E80
:1035F0000D0A000031323334000000003139322E20
:103600003136382E302E3135000000000D0ABDF85D
:10361000C8EBCDB8B4ABB7A2CBCDC4A3CABD202EE6
:103620002E2E2E2E2E0D0A000D0AC5E4D6C32045DF
:1036300053503832363620CDEAB1CF0D0A000000A3
:103640000D0ABFAACABCCDB8B4AB2E2E2E2E2E2E7C
:103650000D0A0000520400200048004050000020E5
:10366000003801403B0000200D0AD5FDD4DAD6D841
:10367000C1ACC8C8B5E3BACDB7FECEF1C6F7202EAF
:103680002E2E2E2E2E0D0A000D0AD6D8C1ACC8C87B
:10369000B5E3BACDB7FECEF1C6F7B3C9B9A60D0AE8
:1036A0000000000008B54FF4A060FCF74DFE262096
:1036B0008DF8000002208DF801008DF80200012035
:1036C0008DF803006846FCF744FE08BD00B585B0E0
:1036D00001210420FDF714FD01214804FDF71DFD23
:1036E0000420ADF8100018208DF8130003208DF889
:1036F000120004A91248FDF747FA0820ADF810009F
:1037000004208DF8130004A90D48FDF73DFA4FF48D
:10371000165000900020ADF80400ADF80600ADF89A
:103720000800ADF80C000C20ADF80A006946054809
:10373000FEF79BFC01210348FEF723FD05B000BD09
:10374000000801400044004008B501210420FDF7B5
:10375000D7FC4FF48070ADF8000010208DF8030006
:1037600003208DF8020069460A48FDF70DFA002093
:103770000949086008BD012805D10121064A1160E8
:10378000064A117005E020B90021034A1160034A7E
:103790001170704700080140A00121423C00002048
:1037A00070B500240A25002607E013480088044469
:1037B000052000F06AF9701CC6B2AE42F5DBB4FB1E
:1037C000F5F080B270BD2DE9F041FFF7E9FF8046CA
:1037D00000F01CFA0746094900F0A8F906464FF028
:1037E0008B4100F0D5F904460549204600F09EF9CA
:1037F00005462846BDE8F0814000002033335340A1
:103800000000C84208B501211020FDF779FC022014
:10381000ADF8000000208DF8030069463D48FDF733
:10382000B3F908BD00B591B001210846FDF75BFC76
:1038300001214802FDF764FC3748FDF71BF83748C3
:10384000069037480790002008900120099000203A
:103850000A900B904FF480700C9080000D90202007
:103860000E9000020F900020109006A92A48FDF744
:10387000A3F801212848FDF7CAF8002001908DF82F
:10388000080001208DF809004FF46020039000200B
:10389000049001208DF8140001A920484C38FCF751
:1038A000E8FD4FF44040FDF78FFB052301220B217B
:1038B0001A484C38FCF775FE012118484C38FCF7C3
:1038C0000FFE012115484C38FCF7FFFD13484C381A
:1038D000FCF71DFE00BF11484C38FCF71DFE002808
:1038E000F9D10E484C38FCF721FE00BF0B484C388C
:1038F000FCF721FE0028F9D1012108484C38FCF7DB
:1039000024FE11B000BD10B5FFF77CFFFFF78AFF62
:1039100010BD000000100140080002404C2401408E
:103920004000002008B54FF4A060FCF70DFD1D20FD
:103930008DF8000001208DF8030000208DF80100B3
:103940008DF802006846FCF704FD08BD08B50121AA
:103950000420FDF7D5FB4020ADF8000018208DF8BD
:10396000030003208DF8020069462748FDF70CF993
:1039700008BD00B587B001210220FDF7CEFB002075
:10398000ADF81600ADF8120044F61F60ADF8140053
:103990004720ADF8100000208DF8180004A91B483E
:1039A000FDF7E6FC4FF48070ADF80C006020ADF838
:1039B00000000020ADF80E00ADF80A00ADF80800D8
:1039C0000420ADF804000120ADF802000020ADF89D
:1039D000060069460D48FDF708FD08210B48FEF773
:1039E00053F9012211460948FEF739F80121074829
:1039F000FEF71AF807B000BD10B5FFF793FFFFF709
:103A0000A5FFFFF7B6FF10BD00080140000400400D
:103A100010B56FF00400FCF7E6FC2E4800682E4954
:103A2000B0FBF1F02D4908700846007800EB40012A
:103A3000C1EBC0104FF6FF7101EAC00028490880B1
:103A400010BD0146254A12784A434FF0E0235A61DF
:103A500000229A611A46126942F001021A6100BFFF
:103A60004FF0E022106900F001021AB100F4803238
:103A7000002AF5D04FF0E022126922F001024FF047
:103A8000E0231A6100229A6170470146144A1288A5
:103A90004A434FF0E0235A6100229A611A461269A4
:103AA00042F001021A6100BF4FF0E022106900F0FD
:103AB00001021AB100F48032002AF5D04FF0E02262
:103AC000126922F001024FF0E0231A6100229A618C
:103AD000704700000000002000127A00480000201B
:103AE0004A000020D2B201E000F8012B491EFBD2AF
:103AF00070470022F6E710B513460A4604461946F9
:103B0000FFF7F0FF204610BD30B505462A460B46AC
:103B100012F8010B13F8014B08B1A042F8D01CB108
:103B2000002802D06D1CF1E7284630BD80EA010272
:103B300010B502F00043400022D04A001FD0010E11
:103B400001EB1261C0F35600C2F3560240F40000CC
:103B500042F40002A0FB022000047F39140400D0CC
:103B6000401C50EA124001D44000491EC2B20C066B
:103B700004EBD010401C4008802A02D003E0002053
:103B800010BD20F00100002900DA0020184310BD0C
:103B900030B480EA010202F0004530F0004221F02A
:103BA000004013D090B1C30DD40DC2F31601C0F381
:103BB0001600E41A41F4000140F400027D34914201
:103BC00001D3641C00E04900002C02DA30BC002064
:103BD00070474FF400000023914201D3891A034338
:103BE00040084FEA4101F7D151B1914202D14FF063
:103BF000004105E002D24FF0010101E06FF0010148
:103C000003EBC450284430BC00F059B8962300227E
:103C1000114600F05DB800F0004220F00040C10DF8
:103C2000C0F3160040F400007F2901DA002070473D
:103C3000962903DCC1F19601C84001E0963988401D
:103C4000002AF4D040427047002801DBC0F1004058
:103C5000002901DBC1F10041884270472DE9F05F86
:103C60000546002092469B468846064681464024EB
:103C70001BE0284641464746224600F078F8534666
:103C80005A46C01A914110D311461846224600F0F8
:103C90005FF82D1A67EB01084F46224601200021EC
:103CA00000F056F817EB00094E41201EA4F1010464
:103CB000DFDC484631462A464346BDE8F09F0029EE
:103CC000A8BF7047401C490008BF20F001007047A2
:103CD00010B4B0FA80FC00FA0CF050EA010404BF02
:103CE00010BC704749B1CCF1200421FA04F411FA58
:103CF0000CF118BF012121430843A3EB0C01CB1D9C
:103D00004FEA00614FEA102042BF002010BC70470C
:103D100000EBC35010440029A4BF10BC7047401CE6
:103D2000490008BF20F0010010BC7047064C074D49
:103D300006E0E06840F0010394E80700984710347B
:103D4000AC42F6D3FCF7F8F9104100083041000806
:103D5000202A04DB203A00FA02F10020704791404B
:103D6000C2F1200320FA03F3194390407047202A40
:103D700004DB203A21FA02F00021704721FA02F315
:103D8000D040C2F12002914008431946704700001C
:103D90000FB4054B10B503A9044A029800F02CF8A3
:103DA00010BC5DF814FB0000EF2800084C00002058
:103DB0000FB4084B10B504A902AA039800F01CF830
:103DC000044602A9002000F077F9204610BC5DF8F7
:103DD00014FB0000B940000802E008C8121F08C127
:103DE000002AFAD170477047002001E001C1121F7C
:103DF000002AFBD1704700002DE9FF4F8DB09B4694
:103E00000F460446002606E025280BD05A460F9997
:103E10009047641C761C20780028F5D111B03046FC
:103E2000BDE8F08F0025A8460122984900E005432F
:103E300014F8013F203B02FA03F00842F7D1207842
:103E40002E2817D114F8010F45F004052A280ED0AA
:103E50006FF02F022078A0F1300109290AD808EB71
:103E6000880102EB410100EB0108641CF2E757F8FE
:103E7000048B641C20786C280DD004DC4C2812D0F4
:103E80006A2811D104E074280DD07A280CD10AE0F8
:103E900045F4001507E0617845F48015814202D1B0
:103EA000641C05F58015641C2278692A45D008DC5D
:103EB000002AB3D0582A69D0632A10D0642A08D1C6
:103EC0003BE0702A67D0732A13D0752A5CD0782A19
:103ED0005CD010465A460F999047761CD3E017F8ED
:103EE000040B8DF8000000208DF80100E946012048
:103EF00003E057F8049B4FF0FF3069074FF00005CF
:103F000001D40AE06D1C45450DDA8542FADB19F84B
:103F100005100029F6D106E06D1C8542FCDB19F87E
:103F200005100029F8D12E4404E019F8010B5A4677
:103F30000F9990476D1EF8D2A5E00A200021CDE927
:103F40000801C5F3025002280DD001CFC117031E8E
:103F500071F100030DDA4FF0000CD0EB0C006CEBAC
:103F600001012D2308E0FF1D27F00707F7E80201F4
:103F7000EDE72B0504D52B238DF8283001233BE0FA
:103F8000EB0739D02023F7E70A2000E010200021BA
:103F9000CDE9080107E01020002145F00405CDE936
:103FA00008014FF00808C5F3025002280FD001CFD6
:103FB00000214FF0000A2B071FD5702A0DD0DDE934
:103FC00008C38CF0100C5CEA030C0CD015E0FF1D4C
:103FD00027F00707F7E80201EBE740228DF82820D9
:103FE0004FF0010A0BE050EA010306D030238DF8B0
:103FF00028308DF8292002239A46582A04D024A27A
:104000000DF120090B9209E026A2F9E7DDE908236A
:10401000FFF724FE0B9B9B5C09F8013D50EA01026F
:10402000F4D1ADEB090020300890680701D44FF0BF
:1040300001080899884502DDA8EB010000E0002096
:104040008046002506E00AA85A46405D0F99904731
:104050006D1C761C5545F6DB04E030205A460F995E
:104060009047761CB8F10001A8F10108F5DC05E0E5
:1040700019F8010B5A460F999047761C0899481E6B
:1040800008900029F4DC641CC5E600000928010042
:1040900030313233343536373839616263646566BE
:1040A0000000000030313233343536373839414280
:1040B00043444546000000000A68531C0B60107022
:1040C000704700000D0AD2B0BBF0BFAAB7A2B0E59E
:1040D000A3BA57462D4553503832363620576946D5
:1040E00069C4A3BFE9CDA8D0C5A3BBBAECCDE2BFDC
:1040F000D8D6C6BFD5B5F7A3BBD3D0BAA6C6F8CC21
:10410000E5BCECB2E2A3BBBFAACBF80D0A000000ED
:10411000304100080000002050000000D83D000899
:104120008041000850000020080C0000E83D000815
:1041300000A24A0400000000000000000102030485
:10414000060708090000000001020304010203043D
:10415000060708090204060800000000000000002D
:1041600000A1F1AB6600A1F12107F80000000000FA
:10417000000000000000000000000000000000003F
:0400000508000131BD
:00000001FF
